:1000800048656C6C6F2045766572794F6E6521000E
:1000900057656C636F6D6520546F204865726521EC
:0100A000005F
:100003001200A17F901200B7E4F508E50890008084
:1000130093FF1200C412005E0508E508C3940F4065
:10002300EA7FD01200B7E4F508E50890009093FF4B
:100033001200C412005E0508E508C3941040EAE408
:10004300F5087F181200B77F647E0012006205086E
:09005300E508C3941040EB80FEA7
:0D00B700C2B512005CD2B412005EC2B422C9
:0D00C400D2B512005CD2B412005EC2B422AC
:1000A100C2B47F381200B77F0C1200B77F0612006E
:0600B100B77F010200B759
:06005C008F807F057E008D
:10006200D3EF9400EE940040147D7D7C00ED1D7072
:0D007200011CED4C70F7EF1F70E61E80E3DF
:01007F00225E
:030000000200D12A
:0C00D100787FE4F6D8FD7581080200037A
:00000001FF
