:0400AF007EBDDBE750
:10007C001200661200441200031200441200901287
:04008C00004480ECC0
:070041007590FF7F2C7E018A
:10004800D3EF9400EE940040147D7D7C00ED1D708C
:0D005800011CED4C70F7EF1F70E61E80E3F9
:010065002278
:10006600E4FB7590AA1200447590551200440BBB30
:0500760003F07590FF8E
:01007B002262
:1000030079FEE4FBE4FA89901200447801AF01EF32
:1000130008800123D8FDF90ABA08EB0BBB03E512EC
:100023000041E4FBE4F9FAE99000AF93F590120084
:0D00330044090ABA04F10BBB03EA7590FF03
:01004000229D
:10009000E4FBE4F5901200441200410BBB03F3753E
:0200A00090FFCF
:0100A200223B
:030000000200A358
:0C00A300787FE4F6D8FD75810702007C30
:00000001FF
