:100003000404040404FC4444444444C404040400B9
:1000130080402018060100004080403F000000009F
:10002300403C10FF101020108F7808F808F80000EB
:10003300020602FF0101044221184681403F0000ED
:1000430000020202E23E2222222222E202020000F7
:10005300404040474444444444744E41404040007F
:1000630002FE9292FE0200101116F014131000000B
:10007300101F0808FF048141310D030D3141810038
:100083000404040404FC4444444444C40404040039
:1000930080402018060100004080403F000000001F
:1000A300403C10FF101020108F7808F808F800006B
:1000B300020602FF0101044221184681403F00006D
:1000C30000020202E23E2222222222E20202000077
:1000D300404040474444444444744E4140404000FF
:1000E30002FE9292FE0200101116F014131000008B
:1000F300101F0808FF048141310D030D31418100B8
:10010300001010101010101090F0F0F010101010DC
:10011300101010181838300000000000000000E034
:10012300FFFF3F050404040404FEFFFF0600000074
:1001330000404060381C0F070300000010103070AF
:10014300783F3F0F000000000000F0F070FCFCFC63
:10015300C4C080F0FEFECCC440C0C0C0E0E0C0001C
:10016300088E87C3C1FFFFFF39BFD7F37C1F8FE31F
:10017300FE7F0F00FFFF3F0000010101007F7F7F33
:10018300426371381C0E17333160707F3F1F0000CC
:1001930000001010101010F0F0F0101010101010DC
:1001A3001010181818100000000000000000F0FFE5
:1001B300FF0F02020202E2FFFF0F00000000000037
:1001C30000202020202121212121212121213F3F05
:1001D3003F202030303020001010F0F0F01010F0ED
:1001E300F8F898989CFCF8B0C0F8BE9ECC8000004C
:1001F3000000FFFFFF2121FFFFFF20202020FFFF42
:10020300FFE0202030313120040C0F0F0706027F5E
:100213007F7F6161381C0F0701071F3C7870202026
:1002230008F8080000000000203F202020203000B4
:10023300E01008080810E0000F10202020100F0025
:100243000000C038E0000000203C230202273820D1
:1002530008F808080810E000203F202020100F00B5
:10026300000808F8080800000020203F20200000B4
:1002730008F830C00008F808203F200007183F00A6
:10028300C03008080838000007182020221E02008A
:1002930000000000000000000030300000000000FB
:1002A30000000000000000000030300000000000EB
:1002B30000000000000000000030300000000000DB
:1002C3001204E7E4F509750A20750BFF750C007538
:1002D3000D03FF120596750801E508C39403500446
:1002E3007F0180027F021204A5AB0BAA0CA90DADFE
:1002F3000AAF091204317410250AF50AD3943F405A
:1003030003E4F50A7420250DF50DE4350CF50C0511
:1003130008E508C3940540C1750902750A08750B01
:10032300FF750C01750D03E4FF120596750801E5D1
:1003330008C3940350047F0180027F021204A5AB1B
:100343000BAA0CA90DAD0AAF091203DB7418250A19
:10035300F50AD394374003E4F50A7448250DF50DE7
:10036300E4350CF50C0508E508C3940540C175098F
:1003730005750A20750BFF750C02750D23E4FF123A
:100383000596750801E508C3940550047F018002B2
:100393007F021204A5AB0BAA0CA90DAD0AAF09127B
:1003A300046B7408250AF50AD3943F4003E4F50A65
:1003B3007410250DF50DE4350CF50C0508E508C39F
:1003C300940B40C1E4FF1204A57F011205967FA0A0
:0803D3007E861205050202C638
:0D058900D2B2C2B1D2B375A0FF30A7FD22DF
:0F057A00120589D2B2C2B1C2B38FA0C2B20022A1
:0605530014F9120523FF5C
:0F055900120589D2B2D2B1C2B38FA0C2B20022B2
:1004A500EF14600E14600F14601324037015C2B4AA
:1004B5008006C2B48009D2B400C2B50022D2B4000D
:0404C500D2B500228A
:0905AF005307074307B802057A5F
:09056800AE05AD071205AFAF06A8
:0905710053073F43074002057ADD
:0905B80053073F4307C002057A16
:1004C9001204A5E4FEAF061205AFE4FF120571FDA3
:0D04D900E4FF1205590DBD40F70EBE08E806
:0104E60022F3
:0D059600BF01047F3F80027F3E12057A22E4
:10053C00C2B07F057E00120505D2B07F057E001289
:07054C0005057F0102059681
:1004E70012053CE4FF120596FF1204C9E4FF12054A
:0E04F700AFFF120571FF1205B87F01020596D6
:060431008B0E8A0F8910FA
:10043700120568E4FCAB0E0510E510AA0F70020563
:100447000F1205530CBC10EDED04FF12056CE4FC14
:10045700AB0E0510E510AA0F7002050F1205530C1D
:03046700BC10EDD9
:01046A00226F
:0603DB008B0E8A0F891051
:1003E100120568E4FCAB0E0510E510AA0F700205BA
:1003F1000F1205530CBC18EDED04FF12056CE4FC63
:10040100AB0E0510E510AA0F7002050F1205530C73
:10041100BC18EDED2402FF12056CE4FCAB0E0510D7
:0F042100E510AA0F7002050F1205530CBC18ED61
:0104300022A9
:06046B008B0E8A0F8910C0
:10047100120568E4FCAB0E0510E510AA0F70020529
:100481000F1205530CBC08EDED04FF12056CE4FCE2
:10049100AB0E0510E510AA0F7002050F1205530CE3
:0304A100BC08EDA7
:0104A4002235
:10050500D3EF9400EE940040147D7D7C00ED1D70CA
:0D051500011CED4C70F7EF1F70E61E80E337
:0105220022B6
:030000000205A353
:0C05A300787FE4F6D8FD7581100202C3D9
:10052300BB010689828A83E0225002E722BBFE02D6
:09053300E32289828A83E4932209
:00000001FF
