:1000E8003F065B4F666D7D077F6F777C395E797160
:10006C001200D5E50CB4142CE4F50C0509E509B423
:10007C006403E4F509E50975F06484F508E5097590
:10008C00F06484E5F075F00A84F50AE50975F00A68
:10009C008485F00BAF087E00AD0A7C00AB0B7A00B8
:0500AC0012000E80BEF1
:0600B100C2A77F017E00E2
:1000B700D3EF9400EE940040147D7D7C00ED1D701D
:0D00C700011CED4C70F7EF1F70E61E80E38A
:0100D4002209
:10000E008C0D8D0ED2A674E82FF58274003EF5830A
:10001E00E493F580C2A6D2A77580FE1200B1E4F576
:10002E0080D2A674E8250EF5827400350DF583E4B2
:10003E0093F580C2A6D2A77580FD1200B1E4F580BB
:10004E00D2A674E82BF58274003AF583E493F5801A
:0E005E00C2A6D2A77580FB1200B1E4F5802285
:1000D500D2AFD2A9758901758C3C758AB0D28CE4F2
:0300E500F50922F8
:03000B00020104EB
:09010400758C3C758AB0050C32C3
:030000000200F803
:0C00F800787FE4F6D8FD75810E02006CE4
:00000001FF
