:1000E9003F065B4F666D7D077F6F777C395E79715F
:1000AC00D2AFD2A9D2AB758911758C3C758AB0755B
:1000BC008D3C758DB0D28CD28EAD0BAF0A12005622
:0200CC0080F7BB
:100056008D0DD2A6EF9000E993F580C2A6D2A775C2
:1000660080FE120086E4F580D2A6E50D9000E993A5
:10007600F580C2A6D2A77580FD120086E4F580221F
:06008600C2A77F057E0009
:10008C00D3EF9400EE6480948040147D7D7C00ED71
:0F009C001D70011CED4C70F7EF1F70E41E80E12A
:0100AB002232
:03000B000200CE22
:1000CE00C0E0C0D0758C3C758AB00508E508B40454
:0B00DE0005750800B290D0D0D0E032D1
:03001B0002001EC2
:10001E00C0E0C0F0C0D0758D3C758BB00509E50908
:10002E00B4141E750900050CE50CB43C03750C00E8
:10003E00E50C75F00A84F50AE50C75F00A8485F076
:08004E000BD0D0D0F0D0E0325D
:0300000002000EED
:0C000E00787FE4F6D8FD75810D0200AC8F
:00000001FF
