:1000B7003F065B4F666D7D077F6F777C395E797191
:050003001200C7C2B5A8
:10000800D2B600C2B600D2B6750C0AAB0BAD0AAFB9
:1000180009120054150CE50CD3940050EE7590FFAE
:10002800D2B700C2B700859008D2B7E50875F0646A
:1000380084F509E50875F06484E5F075F00A84F53F
:0A0048000AE50875F00A8485F00B44
:0200520080B478
:0E00C700D2A6E4F580C2A6D2A7F580C2A72279
:06009300C2A77F057E00FC
:10009900D3EF9400EE940040147D7D7C00ED1D703B
:0D00A900011CED4C70F7EF1F70E61E80E3A8
:0100B6002227
:10005400AA05D2A6EF9000B793F580C2A6D2A775E1
:1000640080FE120093E4F580D2A6EA93F580C2A63E
:10007400D2A77580FD120093E4F580D2A6EB93F528
:0F00840080C2A6D2A77580FB120093E4F58022FC
:030000000200D526
:0C00D500787FE4F6D8FD75810C02000372
:00000001FF
