:100186003F065B4F666D7D077F6F777C395E7971C1
:0801BC0012019612000380FB02
:040164007F0A7E0090
:10016800D3EF9400EE940040147D7D7C00ED1D706B
:0D017800011CED4C70F7EF1F70E61E80E3D8
:010185002257
:0E019600D2A6E4F580C2A6D2A7F580C2A722A9
:0C01A400D2A6EF90018693F580C2A6223F
:1000030075B0FE85B0085308F0E50864F060491246
:10001300016485B0085308F0E50864F0603A85B0E0
:1000230008E5082482601B24C0601224E0600924D0
:10003300F07012E4F509800D750901800875090255
:100043008003750903E50864F0600885B008530868
:10005300F080F2AF091201A475B0FD85B008530812
:10006300F0E50864F0604912016485B0085308F0B4
:10007300E50864F0603A85B008E5082483601B2432
:10008300C0601224E0600924F07012750904800D29
:1000930075090580087509068003750907E5086475
:1000A300F0600885B0085308F080F2AF091201A48C
:1000B30075B0FB85B0085308F0E50864F060491299
:1000C300016485B0085308F0E50864F0603A85B030
:1000D30008E5082485601B24C0601224E06009241D
:1000E300F07012750908800D750909800875090AF1
:1000F300800375090BE50864F0600885B0085308B0
:10010300F080F2AF091201A475B0F785B008530867
:10011300F0E50864F0604912016485B0085308F003
:10012300E50864F0603A85B008E5082489601B247B
:10013300C0601224E0600924F0701275090C800D70
:1001430075090D800875090E800375090FE50864AC
:10015300F0600885B0085308F080F2AF091201A4DB
:010163002279
:030000000201B04A
:0C01B000787FE4F6D8FD75810A0201BCDE
:00000001FF
